{
  "_format": "hh3-artifact-1",
  "contractName": "EMN",
  "sourceName": "contracts/EMN.sol",
  "abi": [
    {
      "inputs": [],
      "stateMutability": "nonpayable",
      "type": "constructor"
    },
    {
      "inputs": [
        {
          "internalType": "address",
          "name": "target",
          "type": "address"
        }
      ],
      "name": "AddressEmptyCode",
      "type": "error"
    },
    {
      "inputs": [
        {
          "internalType": "address",
          "name": "implementation",
          "type": "address"
        }
      ],
      "name": "ERC1967InvalidImplementation",
      "type": "error"
    },
    {
      "inputs": [],
      "name": "ERC1967NonPayable",
      "type": "error"
    },
    {
      "inputs": [
        {
          "internalType": "uint256",
          "name": "numerator",
          "type": "uint256"
        },
        {
          "internalType": "uint256",
          "name": "denominator",
          "type": "uint256"
        }
      ],
      "name": "ERC2981InvalidDefaultRoyalty",
      "type": "error"
    },
    {
      "inputs": [
        {
          "internalType": "address",
          "name": "receiver",
          "type": "address"
        }
      ],
      "name": "ERC2981InvalidDefaultRoyaltyReceiver",
      "type": "error"
    },
    {
      "inputs": [
        {
          "internalType": "uint256",
          "name": "tokenId",
          "type": "uint256"
        },
        {
          "internalType": "uint256",
          "name": "numerator",
          "type": "uint256"
        },
        {
          "internalType": "uint256",
          "name": "denominator",
          "type": "uint256"
        }
      ],
      "name": "ERC2981InvalidTokenRoyalty",
      "type": "error"
    },
    {
      "inputs": [
        {
          "internalType": "uint256",
          "name": "tokenId",
          "type": "uint256"
        },
        {
          "internalType": "address",
          "name": "receiver",
          "type": "address"
        }
      ],
      "name": "ERC2981InvalidTokenRoyaltyReceiver",
      "type": "error"
    },
    {
      "inputs": [
        {
          "internalType": "address",
          "name": "sender",
          "type": "address"
        },
        {
          "internalType": "uint256",
          "name": "tokenId",
          "type": "uint256"
        },
        {
          "internalType": "address",
          "name": "owner",
          "type": "address"
        }
      ],
      "name": "ERC721IncorrectOwner",
      "type": "error"
    },
    {
      "inputs": [
        {
          "internalType": "address",
          "name": "operator",
          "type": "address"
        },
        {
          "internalType": "uint256",
          "name": "tokenId",
          "type": "uint256"
        }
      ],
      "name": "ERC721InsufficientApproval",
      "type": "error"
    },
    {
      "inputs": [
        {
          "internalType": "address",
          "name": "approver",
          "type": "address"
        }
      ],
      "name": "ERC721InvalidApprover",
      "type": "error"
    },
    {
      "inputs": [
        {
          "internalType": "address",
          "name": "operator",
          "type": "address"
        }
      ],
      "name": "ERC721InvalidOperator",
      "type": "error"
    },
    {
      "inputs": [
        {
          "internalType": "address",
          "name": "owner",
          "type": "address"
        }
      ],
      "name": "ERC721InvalidOwner",
      "type": "error"
    },
    {
      "inputs": [
        {
          "internalType": "address",
          "name": "receiver",
          "type": "address"
        }
      ],
      "name": "ERC721InvalidReceiver",
      "type": "error"
    },
    {
      "inputs": [
        {
          "internalType": "address",
          "name": "sender",
          "type": "address"
        }
      ],
      "name": "ERC721InvalidSender",
      "type": "error"
    },
    {
      "inputs": [
        {
          "internalType": "uint256",
          "name": "tokenId",
          "type": "uint256"
        }
      ],
      "name": "ERC721NonexistentToken",
      "type": "error"
    },
    {
      "inputs": [],
      "name": "FailedCall",
      "type": "error"
    },
    {
      "inputs": [],
      "name": "InvalidInitialization",
      "type": "error"
    },
    {
      "inputs": [],
      "name": "NotInitializing",
      "type": "error"
    },
    {
      "inputs": [
        {
          "internalType": "address",
          "name": "owner",
          "type": "address"
        }
      ],
      "name": "OwnableInvalidOwner",
      "type": "error"
    },
    {
      "inputs": [
        {
          "internalType": "address",
          "name": "account",
          "type": "address"
        }
      ],
      "name": "OwnableUnauthorizedAccount",
      "type": "error"
    },
    {
      "inputs": [],
      "name": "UUPSUnauthorizedCallContext",
      "type": "error"
    },
    {
      "inputs": [
        {
          "internalType": "bytes32",
          "name": "slot",
          "type": "bytes32"
        }
      ],
      "name": "UUPSUnsupportedProxiableUUID",
      "type": "error"
    },
    {
      "anonymous": false,
      "inputs": [
        {
          "indexed": true,
          "internalType": "address",
          "name": "owner",
          "type": "address"
        },
        {
          "indexed": true,
          "internalType": "address",
          "name": "approved",
          "type": "address"
        },
        {
          "indexed": true,
          "internalType": "uint256",
          "name": "tokenId",
          "type": "uint256"
        }
      ],
      "name": "Approval",
      "type": "event"
    },
    {
      "anonymous": false,
      "inputs": [
        {
          "indexed": true,
          "internalType": "address",
          "name": "owner",
          "type": "address"
        },
        {
          "indexed": true,
          "internalType": "address",
          "name": "operator",
          "type": "address"
        },
        {
          "indexed": false,
          "internalType": "bool",
          "name": "approved",
          "type": "bool"
        }
      ],
      "name": "ApprovalForAll",
      "type": "event"
    },
    {
      "anonymous": false,
      "inputs": [
        {
          "indexed": false,
          "internalType": "string",
          "name": "newContractURI",
          "type": "string"
        }
      ],
      "name": "ContractURIUpdated",
      "type": "event"
    },
    {
      "anonymous": false,
      "inputs": [
        {
          "indexed": false,
          "internalType": "uint64",
          "name": "version",
          "type": "uint64"
        }
      ],
      "name": "Initialized",
      "type": "event"
    },
    {
      "anonymous": false,
      "inputs": [
        {
          "indexed": true,
          "internalType": "uint256",
          "name": "tokenId",
          "type": "uint256"
        },
        {
          "indexed": false,
          "internalType": "string",
          "name": "tokenURI",
          "type": "string"
        }
      ],
      "name": "NftMinted",
      "type": "event"
    },
    {
      "anonymous": false,
      "inputs": [
        {
          "indexed": true,
          "internalType": "address",
          "name": "previousOwner",
          "type": "address"
        },
        {
          "indexed": true,
          "internalType": "address",
          "name": "newOwner",
          "type": "address"
        }
      ],
      "name": "OwnershipTransferred",
      "type": "event"
    },
    {
      "anonymous": false,
      "inputs": [
        {
          "indexed": true,
          "internalType": "address",
          "name": "from",
          "type": "address"
        },
        {
          "indexed": true,
          "internalType": "address",
          "name": "to",
          "type": "address"
        },
        {
          "indexed": true,
          "internalType": "uint256",
          "name": "tokenId",
          "type": "uint256"
        }
      ],
      "name": "Transfer",
      "type": "event"
    },
    {
      "anonymous": false,
      "inputs": [
        {
          "indexed": true,
          "internalType": "address",
          "name": "implementation",
          "type": "address"
        }
      ],
      "name": "Upgraded",
      "type": "event"
    },
    {
      "inputs": [],
      "name": "UPGRADE_INTERFACE_VERSION",
      "outputs": [
        {
          "internalType": "string",
          "name": "",
          "type": "string"
        }
      ],
      "stateMutability": "view",
      "type": "function"
    },
    {
      "inputs": [
        {
          "internalType": "address",
          "name": "to",
          "type": "address"
        },
        {
          "internalType": "uint256",
          "name": "tokenId",
          "type": "uint256"
        }
      ],
      "name": "approve",
      "outputs": [],
      "stateMutability": "nonpayable",
      "type": "function"
    },
    {
      "inputs": [
        {
          "internalType": "address",
          "name": "owner",
          "type": "address"
        }
      ],
      "name": "balanceOf",
      "outputs": [
        {
          "internalType": "uint256",
          "name": "",
          "type": "uint256"
        }
      ],
      "stateMutability": "view",
      "type": "function"
    },
    {
      "inputs": [],
      "name": "contractURI",
      "outputs": [
        {
          "internalType": "string",
          "name": "",
          "type": "string"
        }
      ],
      "stateMutability": "view",
      "type": "function"
    },
    {
      "inputs": [],
      "name": "deleteDefaultRoyalty",
      "outputs": [],
      "stateMutability": "nonpayable",
      "type": "function"
    },
    {
      "inputs": [
        {
          "internalType": "uint256",
          "name": "tokenId",
          "type": "uint256"
        }
      ],
      "name": "getApproved",
      "outputs": [
        {
          "internalType": "address",
          "name": "",
          "type": "address"
        }
      ],
      "stateMutability": "view",
      "type": "function"
    },
    {
      "inputs": [],
      "name": "getTokenCounter",
      "outputs": [
        {
          "internalType": "uint256",
          "name": "",
          "type": "uint256"
        }
      ],
      "stateMutability": "view",
      "type": "function"
    },
    {
      "inputs": [
        {
          "internalType": "address",
          "name": "royaltyReceiver",
          "type": "address"
        },
        {
          "internalType": "uint96",
          "name": "royaltyFeeNumerator",
          "type": "uint96"
        }
      ],
      "name": "initialize",
      "outputs": [],
      "stateMutability": "nonpayable",
      "type": "function"
    },
    {
      "inputs": [
        {
          "internalType": "address",
          "name": "owner",
          "type": "address"
        },
        {
          "internalType": "address",
          "name": "operator",
          "type": "address"
        }
      ],
      "name": "isApprovedForAll",
      "outputs": [
        {
          "internalType": "bool",
          "name": "",
          "type": "bool"
        }
      ],
      "stateMutability": "view",
      "type": "function"
    },
    {
      "inputs": [
        {
          "internalType": "string",
          "name": "tokenURI",
          "type": "string"
        }
      ],
      "name": "mintNft",
      "outputs": [],
      "stateMutability": "nonpayable",
      "type": "function"
    },
    {
      "inputs": [
        {
          "internalType": "address",
          "name": "to",
          "type": "address"
        },
        {
          "internalType": "string",
          "name": "tokenURI",
          "type": "string"
        }
      ],
      "name": "mintNftTo",
      "outputs": [],
      "stateMutability": "nonpayable",
      "type": "function"
    },
    {
      "inputs": [],
      "name": "name",
      "outputs": [
        {
          "internalType": "string",
          "name": "",
          "type": "string"
        }
      ],
      "stateMutability": "view",
      "type": "function"
    },
    {
      "inputs": [],
      "name": "owner",
      "outputs": [
        {
          "internalType": "address",
          "name": "",
          "type": "address"
        }
      ],
      "stateMutability": "view",
      "type": "function"
    },
    {
      "inputs": [
        {
          "internalType": "uint256",
          "name": "tokenId",
          "type": "uint256"
        }
      ],
      "name": "ownerOf",
      "outputs": [
        {
          "internalType": "address",
          "name": "",
          "type": "address"
        }
      ],
      "stateMutability": "view",
      "type": "function"
    },
    {
      "inputs": [],
      "name": "proxiableUUID",
      "outputs": [
        {
          "internalType": "bytes32",
          "name": "",
          "type": "bytes32"
        }
      ],
      "stateMutability": "view",
      "type": "function"
    },
    {
      "inputs": [],
      "name": "renounceOwnership",
      "outputs": [],
      "stateMutability": "nonpayable",
      "type": "function"
    },
    {
      "inputs": [
        {
          "internalType": "uint256",
          "name": "tokenId",
          "type": "uint256"
        }
      ],
      "name": "resetTokenRoyalty",
      "outputs": [],
      "stateMutability": "nonpayable",
      "type": "function"
    },
    {
      "inputs": [
        {
          "internalType": "uint256",
          "name": "tokenId",
          "type": "uint256"
        },
        {
          "internalType": "uint256",
          "name": "salePrice",
          "type": "uint256"
        }
      ],
      "name": "royaltyInfo",
      "outputs": [
        {
          "internalType": "address",
          "name": "receiver",
          "type": "address"
        },
        {
          "internalType": "uint256",
          "name": "amount",
          "type": "uint256"
        }
      ],
      "stateMutability": "view",
      "type": "function"
    },
    {
      "inputs": [
        {
          "internalType": "address",
          "name": "from",
          "type": "address"
        },
        {
          "internalType": "address",
          "name": "to",
          "type": "address"
        },
        {
          "internalType": "uint256",
          "name": "tokenId",
          "type": "uint256"
        }
      ],
      "name": "safeTransferFrom",
      "outputs": [],
      "stateMutability": "nonpayable",
      "type": "function"
    },
    {
      "inputs": [
        {
          "internalType": "address",
          "name": "from",
          "type": "address"
        },
        {
          "internalType": "address",
          "name": "to",
          "type": "address"
        },
        {
          "internalType": "uint256",
          "name": "tokenId",
          "type": "uint256"
        },
        {
          "internalType": "bytes",
          "name": "data",
          "type": "bytes"
        }
      ],
      "name": "safeTransferFrom",
      "outputs": [],
      "stateMutability": "nonpayable",
      "type": "function"
    },
    {
      "inputs": [
        {
          "internalType": "address",
          "name": "operator",
          "type": "address"
        },
        {
          "internalType": "bool",
          "name": "approved",
          "type": "bool"
        }
      ],
      "name": "setApprovalForAll",
      "outputs": [],
      "stateMutability": "nonpayable",
      "type": "function"
    },
    {
      "inputs": [
        {
          "internalType": "string",
          "name": "newContractURI",
          "type": "string"
        }
      ],
      "name": "setContractURI",
      "outputs": [],
      "stateMutability": "nonpayable",
      "type": "function"
    },
    {
      "inputs": [
        {
          "internalType": "address",
          "name": "receiver",
          "type": "address"
        },
        {
          "internalType": "uint96",
          "name": "feeNumerator",
          "type": "uint96"
        }
      ],
      "name": "setDefaultRoyalty",
      "outputs": [],
      "stateMutability": "nonpayable",
      "type": "function"
    },
    {
      "inputs": [
        {
          "internalType": "uint256",
          "name": "tokenId",
          "type": "uint256"
        },
        {
          "internalType": "address",
          "name": "receiver",
          "type": "address"
        },
        {
          "internalType": "uint96",
          "name": "feeNumerator",
          "type": "uint96"
        }
      ],
      "name": "setTokenRoyalty",
      "outputs": [],
      "stateMutability": "nonpayable",
      "type": "function"
    },
    {
      "inputs": [
        {
          "internalType": "uint256",
          "name": "tokenId",
          "type": "uint256"
        },
        {
          "internalType": "string",
          "name": "tokenURI",
          "type": "string"
        }
      ],
      "name": "setTokenURI",
      "outputs": [],
      "stateMutability": "nonpayable",
      "type": "function"
    },
    {
      "inputs": [
        {
          "internalType": "bytes4",
          "name": "interfaceId",
          "type": "bytes4"
        }
      ],
      "name": "supportsInterface",
      "outputs": [
        {
          "internalType": "bool",
          "name": "",
          "type": "bool"
        }
      ],
      "stateMutability": "view",
      "type": "function"
    },
    {
      "inputs": [],
      "name": "symbol",
      "outputs": [
        {
          "internalType": "string",
          "name": "",
          "type": "string"
        }
      ],
      "stateMutability": "view",
      "type": "function"
    },
    {
      "inputs": [
        {
          "internalType": "uint256",
          "name": "tokenId",
          "type": "uint256"
        }
      ],
      "name": "tokenURI",
      "outputs": [
        {
          "internalType": "string",
          "name": "",
          "type": "string"
        }
      ],
      "stateMutability": "view",
      "type": "function"
    },
    {
      "inputs": [
        {
          "internalType": "address",
          "name": "from",
          "type": "address"
        },
        {
          "internalType": "address",
          "name": "to",
          "type": "address"
        },
        {
          "internalType": "uint256",
          "name": "tokenId",
          "type": "uint256"
        }
      ],
      "name": "transferFrom",
      "outputs": [],
      "stateMutability": "nonpayable",
      "type": "function"
    },
    {
      "inputs": [
        {
          "internalType": "address",
          "name": "newOwner",
          "type": "address"
        }
      ],
      "name": "transferOwnership",
      "outputs": [],
      "stateMutability": "nonpayable",
      "type": "function"
    },
    {
      "inputs": [
        {
          "internalType": "address",
          "name": "newImplementation",
          "type": "address"
        },
        {
          "internalType": "bytes",
          "name": "data",
          "type": "bytes"
        }
      ],
      "name": "upgradeToAndCall",
      "outputs": [],
      "stateMutability": "payable",
      "type": "function"
    },
    {
      "inputs": [],
      "name": "version",
      "outputs": [
        {
          "internalType": "string",
          "name": "",
          "type": "string"
        }
      ],
      "stateMutability": "pure",
      "type": "function"
    }
  ],
  "bytecode": "0x60a060405230608052348015610013575f5ffd5b5061001c610021565b6100d3565b7ff0c57e16840df040f15088dc2f81fe391c3923bec73e23a9662efc9c229c6a00805468010000000000000000900460ff16156100715760405163f92ee8a960e01b815260040160405180910390fd5b80546001600160401b03908116146100d05780546001600160401b0319166001600160401b0390811782556040519081527fc7f505b2f371ae2175ee4913f4499e1f2633a7b5936321eed1cdaeb6115181d29060200160405180910390a15b50565b60805161229e6100f95f395f81816111470152818161117001526112af015261229e5ff3fe6080604052600436106101db575f3560e01c806370a08231116100fd578063ad3cb1cc11610092578063e8a3d48511610062578063e8a3d48514610599578063e985e9c5146105ad578063f2a41374146105cc578063f2fde38b146105eb575f5ffd5b8063ad3cb1cc1461050c578063b88d4fde1461053c578063c87b56dd1461055b578063da86f4a91461057a575f5ffd5b8063938e3d7b116100cd578063938e3d7b146104a657806395d89b41146104c5578063a22cb465146104d9578063aa1b103f146104f8575f5ffd5b806370a0823114610418578063715018a6146104375780638a616bc01461044b5780638da5cb5b1461046a575f5ffd5b806342842e0e1161017357806354fd4d501161014357806354fd4d501461039a5780635944c753146103c75780636352211e146103e65780636e02007d14610405575f5ffd5b806342842e0e1461032757806348618b1c146103465780634f1ef2861461036557806352d1902d14610378575f5ffd5b8063095ea7b3116101ae578063095ea7b31461028c578063162094c4146102ab57806323b872dd146102ca5780632a55205a146102e9575f5ffd5b806301ffc9a7146101df57806304634d8d1461021357806306fdde0314610234578063081812fc14610255575b5f5ffd5b3480156101ea575f5ffd5b506101fe6101f9366004611b8c565b61060a565b60405190151581526020015b60405180910390f35b34801561021e575f5ffd5b5061023261022d366004611bd8565b61061a565b005b34801561023f575f5ffd5b50610248610630565b60405161020a9190611c37565b348015610260575f5ffd5b5061027461026f366004611c49565b6106d1565b6040516001600160a01b03909116815260200161020a565b348015610297575f5ffd5b506102326102a6366004611c60565b6106e5565b3480156102b6575f5ffd5b506102326102c5366004611d2d565b6106f0565b3480156102d5575f5ffd5b506102326102e4366004611d71565b61070c565b3480156102f4575f5ffd5b50610308610303366004611dab565b61079a565b604080516001600160a01b03909316835260208301919091520161020a565b348015610332575f5ffd5b50610232610341366004611d71565b61084a565b348015610351575f5ffd5b50610232610360366004611dcb565b610869565b610232610373366004611dcb565b6108d3565b348015610383575f5ffd5b5061038c6108ee565b60405190815260200161020a565b3480156103a5575f5ffd5b506040805180820190915260058152640312e312e360dc1b6020820152610248565b3480156103d2575f5ffd5b506102326103e1366004611e00565b610909565b3480156103f1575f5ffd5b50610274610400366004611c49565b61091c565b348015610410575f5ffd5b505f5461038c565b348015610423575f5ffd5b5061038c610432366004611e39565b610926565b348015610442575f5ffd5b5061023261097e565b348015610456575f5ffd5b50610232610465366004611c49565b610991565b348015610475575f5ffd5b507f9016d09d72d40fdae2fd8ceac6b6234c7706214fd39c1cd1e609a0528c199300546001600160a01b0316610274565b3480156104b1575f5ffd5b506102326104c0366004611e52565b6109cb565b3480156104d0575f5ffd5b50610248610a1a565b3480156104e4575f5ffd5b506102326104f3366004611e84565b610a58565b348015610503575f5ffd5b50610232610a63565b348015610517575f5ffd5b50610248604051806040016040528060058152602001640352e302e360dc1b81525081565b348015610547575f5ffd5b50610232610556366004611ebd565b610a80565b348015610566575f5ffd5b50610248610575366004611c49565b610a98565b348015610585575f5ffd5b50610232610594366004611e52565b610b3f565b3480156105a4575f5ffd5b50610248610ba0565b3480156105b8575f5ffd5b506101fe6105c7366004611f21565b610c30565b3480156105d7575f5ffd5b506102326105e6366004611bd8565b610c7c565b3480156105f6575f5ffd5b50610232610605366004611e39565b610e23565b5f61061482610e5d565b92915050565b610622610e81565b61062c8282610edc565b5050565b5f51602061219f5f395f51905f52805460609190819061064f90611f49565b80601f016020809104026020016040519081016040528092919081815260200182805461067b90611f49565b80156106c65780601f1061069d576101008083540402835291602001916106c6565b820191905f5260205f20905b8154815290600101906020018083116106a957829003601f168201915b505050505091505090565b5f6106db82610f8b565b5061061482610fc2565b61062c828233610ffb565b6106f8610e81565b61070182610f8b565b5061062c8282611008565b6001600160a01b03821661073a57604051633250574960e11b81525f60048201526024015b60405180910390fd5b5f61074683833361101f565b9050836001600160a01b0316816001600160a01b031614610794576040516364283d7b60e01b81526001600160a01b0380861660048301526024820184905282166044820152606401610731565b50505050565b5f8281527fdaedc9ab023613a7caf35e703657e986ccfad7e3eb0af93a2853f8d65dd86b0160205260408120805482915f5160206122495f395f51905f52916001600160a01b03811690600160a01b90046001600160601b03168161081957505081546001600160a01b03811690600160a01b90046001600160601b03165b5f6127106108306001600160601b0384168a611f95565b61083a9190611fac565b9299929850919650505050505050565b61086483838360405180602001604052805f815250610a80565b505050565b610871610e81565b5f5461087d8382611123565b6108878183611008565b807fe578c8f75165e747c939a516a93901610990f0f120d839b08ce89b77ad220f1e836040516108b79190611c37565b60405180910390a25f546108cc906001611fcb565b5f55505050565b6108db61113c565b6108e4826111e0565b61062c82826111e8565b5f6108f76112a4565b505f5160206121bf5f395f51905f5290565b610911610e81565b6108648383836112ed565b5f61061482610f8b565b5f5f51602061219f5f395f51905f526001600160a01b03831661095e576040516322718ad960e21b81525f6004820152602401610731565b6001600160a01b039092165f908152600390920160205250604090205490565b610986610e81565b61098f5f6113bd565b565b610999610e81565b5f9081527fdaedc9ab023613a7caf35e703657e986ccfad7e3eb0af93a2853f8d65dd86b016020526040812055565b50565b6109d3610e81565b60026109df8282612022565b507f905d981207a7d0b6c62cc46ab0be2a076d0298e4a86d0ab79882dbd01ac3737881604051610a0f9190611c37565b60405180910390a150565b7f80bb2b638cc20bc4d0a60d66940f3ab4a00c1d7b313497ca82fb0b4ab007930180546060915f51602061219f5f395f51905f529161064f90611f49565b61062c33838361142d565b610a6b610e81565b61098f5f5f5160206122495f395f51905f5255565b610a8b84848461070c565b61079433858585856114dc565b6060610aa382610f8b565b505f8281526001602052604090208054610abc90611f49565b80601f0160208091040260200160405190810160405280929190818152602001828054610ae890611f49565b8015610b335780601f10610b0a57610100808354040283529160200191610b33565b820191905f5260205f20905b815481529060010190602001808311610b1657829003601f168201915b50505050509050919050565b5f54610b4b3382611123565b610b558183611008565b807fe578c8f75165e747c939a516a93901610990f0f120d839b08ce89b77ad220f1e83604051610b859190611c37565b60405180910390a25f54610b9a906001611fcb565b5f555050565b606060028054610baf90611f49565b80601f0160208091040260200160405190810160405280929190818152602001828054610bdb90611f49565b8015610c265780601f10610bfd57610100808354040283529160200191610c26565b820191905f5260205f20905b815481529060010190602001808311610c0957829003601f168201915b5050505050905090565b6001600160a01b039182165f9081527f80bb2b638cc20bc4d0a60d66940f3ab4a00c1d7b313497ca82fb0b4ab00793056020908152604080832093909416825291909152205460ff1690565b5f610c85611604565b805490915060ff600160401b820416159067ffffffffffffffff165f81158015610cac5750825b90505f8267ffffffffffffffff166001148015610cc85750303b155b905081158015610cd6575080155b15610cf45760405163f92ee8a960e01b815260040160405180910390fd5b845467ffffffffffffffff191660011785558315610d1e57845460ff60401b1916600160401b1785555b610d626040518060400160405280600781526020016622a7a71026aaa760c91b8152506040518060400160405280600381526020016222a6a760e91b81525061162c565b610d6a61163e565b610d7333611646565b610d7b61163e565b5f8055610d888787610edc565b5f6040518060a00160405280606a81526020016121df606a9139905080604051602001610db591906120f4565b60405160208183030381529060405260029081610dd29190612022565b50508315610e1a57845460ff60401b19168555604051600181527fc7f505b2f371ae2175ee4913f4499e1f2633a7b5936321eed1cdaeb6115181d29060200160405180910390a15b50505050505050565b610e2b610e81565b6001600160a01b038116610e5457604051631e4fbdf760e01b81525f6004820152602401610731565b6109c8816113bd565b5f6001600160e01b0319821663152a902d60e11b1480610614575061061482611657565b33610eb37f9016d09d72d40fdae2fd8ceac6b6234c7706214fd39c1cd1e609a0528c199300546001600160a01b031690565b6001600160a01b03161461098f5760405163118cdaa760e01b8152336004820152602401610731565b5f5160206122495f395f51905f526127106001600160601b038316811015610f2957604051636f483d0960e01b81526001600160601b038416600482015260248101829052604401610731565b6001600160a01b038416610f5257604051635b6cc80560e11b81525f6004820152602401610731565b50604080518082019091526001600160a01b039093168084526001600160601b039092166020909301839052600160a01b909202179055565b5f5f610f96836116a6565b90506001600160a01b03811661061457604051637e27328960e01b815260048101849052602401610731565b5f9081527f80bb2b638cc20bc4d0a60d66940f3ab4a00c1d7b313497ca82fb0b4ab007930460205260409020546001600160a01b031690565b61086483838360016116df565b5f8281526001602052604090206108648282612022565b5f5f51602061219f5f395f51905f5281611038856116a6565b90506001600160a01b03841615611054576110548185876117f2565b6001600160a01b038116156110905761106f5f865f5f6116df565b6001600160a01b0381165f908152600383016020526040902080545f190190555b6001600160a01b038616156110c0576001600160a01b0386165f9081526003830160205260409020805460010190555b5f85815260028301602052604080822080546001600160a01b0319166001600160a01b038a811691821790925591518893918516917fddf252ad1be2c89b69c2b068fc378daa952ba7f163c4a11628f55a4df523b3ef91a49150505b9392505050565b61062c828260405180602001604052805f815250611856565b306001600160a01b037f00000000000000000000000000000000000000000000000000000000000000001614806111c257507f00000000000000000000000000000000000000000000000000000000000000006001600160a01b03166111b65f5160206121bf5f395f51905f52546001600160a01b031690565b6001600160a01b031614155b1561098f5760405163703e46dd60e11b815260040160405180910390fd5b6109c8610e81565b816001600160a01b03166352d1902d6040518163ffffffff1660e01b8152600401602060405180830381865afa925050508015611242575060408051601f3d908101601f1916820190925261123f91810190612125565b60015b61126a57604051634c9c8ce360e01b81526001600160a01b0383166004820152602401610731565b5f5160206121bf5f395f51905f52811461129a57604051632a87526960e21b815260048101829052602401610731565b610864838361186d565b306001600160a01b037f0000000000000000000000000000000000000000000000000000000000000000161461098f5760405163703e46dd60e11b815260040160405180910390fd5b5f5160206122495f395f51905f526127106001600160601b0383168110156113415760405163dfd1fc1b60e01b8152600481018690526001600160601b038416602482015260448101829052606401610731565b6001600160a01b03841661137157604051634b4f842960e11b8152600481018690525f6024820152604401610731565b506040805180820182526001600160a01b0394851681526001600160601b0393841660208083019182525f9788526001909401909352942093519051909116600160a01b029116179055565b7f9016d09d72d40fdae2fd8ceac6b6234c7706214fd39c1cd1e609a0528c19930080546001600160a01b031981166001600160a01b03848116918217845560405192169182907f8be0079c531659141344cd1fd0a4f28419497f9722a3daafe3b4186f6b6457e0905f90a3505050565b5f51602061219f5f395f51905f526001600160a01b03831661146d57604051630b61174360e31b81526001600160a01b0384166004820152602401610731565b6001600160a01b038481165f818152600584016020908152604080832094881680845294825291829020805460ff191687151590811790915591519182527f17307eab39ab6107e8899845ad3d59bd9653f200f220920489ca2b5937696c31910160405180910390a350505050565b6001600160a01b0383163b156115fd57604051630a85bd0160e11b81526001600160a01b0384169063150b7a029061151e90889088908790879060040161213c565b6020604051808303815f875af1925050508015611558575060408051601f3d908101601f1916820190925261155591810190612178565b60015b6115bf573d808015611585576040519150601f19603f3d011682016040523d82523d5f602084013e61158a565b606091505b5080515f036115b757604051633250574960e11b81526001600160a01b0385166004820152602401610731565b805181602001fd5b6001600160e01b03198116630a85bd0160e11b146115fb57604051633250574960e11b81526001600160a01b0385166004820152602401610731565b505b5050505050565b5f807ff0c57e16840df040f15088dc2f81fe391c3923bec73e23a9662efc9c229c6a00610614565b6116346118c2565b61062c82826118e7565b61098f6118c2565b61164e6118c2565b6109c881611917565b5f6001600160e01b031982166380ac58cd60e01b148061168757506001600160e01b03198216635b5e139f60e01b145b8061061457506301ffc9a760e01b6001600160e01b0319831614610614565b5f9081527f80bb2b638cc20bc4d0a60d66940f3ab4a00c1d7b313497ca82fb0b4ab007930260205260409020546001600160a01b031690565b5f51602061219f5f395f51905f52818061170157506001600160a01b03831615155b156117c2575f61171085610f8b565b90506001600160a01b0384161580159061173c5750836001600160a01b0316816001600160a01b031614155b801561174f575061174d8185610c30565b155b156117785760405163a9fbf51f60e01b81526001600160a01b0385166004820152602401610731565b82156117c05784866001600160a01b0316826001600160a01b03167f8c5be1e5ebec7d5bd14f71427d1e84f3dd0314c0f7b2291e5b200ac8c7c3b92560405160405180910390a45b505b5f93845260040160205250506040902080546001600160a01b0319166001600160a01b0392909216919091179055565b6117fd83838361191f565b610864576001600160a01b03831661182b57604051637e27328960e01b815260048101829052602401610731565b60405163177e802f60e01b81526001600160a01b038316600482015260248101829052604401610731565b6118608383611984565b610864335f8585856114dc565b611876826119e5565b6040516001600160a01b038316907fbc7cd75a20ee27fd9adebab32041f755214dbc6bffa90cc0225b39da2e5c2d3b905f90a28051156118ba576108648282611a48565b61062c611aba565b6118ca611ad9565b61098f57604051631afcd79f60e31b815260040160405180910390fd5b6118ef6118c2565b5f51602061219f5f395f51905f52806119088482612022565b50600181016107948382612022565b610e2b6118c2565b5f6001600160a01b0383161580159061197c5750826001600160a01b0316846001600160a01b0316148061195857506119588484610c30565b8061197c5750826001600160a01b031661197183610fc2565b6001600160a01b0316145b949350505050565b6001600160a01b0382166119ad57604051633250574960e11b81525f6004820152602401610731565b5f6119b983835f61101f565b90506001600160a01b03811615610864576040516339e3563760e11b81525f6004820152602401610731565b806001600160a01b03163b5f03611a1a57604051634c9c8ce360e01b81526001600160a01b0382166004820152602401610731565b5f5160206121bf5f395f51905f5280546001600160a01b0319166001600160a01b0392909216919091179055565b60605f5f846001600160a01b031684604051611a649190612193565b5f60405180830381855af49150503d805f8114611a9c576040519150601f19603f3d011682016040523d82523d5f602084013e611aa1565b606091505b5091509150611ab1858383611af2565b95945050505050565b341561098f5760405163b398979f60e01b815260040160405180910390fd5b5f611ae2611604565b54600160401b900460ff16919050565b606082611b0757611b0282611b4e565b61111c565b8151158015611b1e57506001600160a01b0384163b155b15611b4757604051639996b31560e01b81526001600160a01b0385166004820152602401610731565b508061111c565b805115611b5e5780518082602001fd5b60405163d6bda27560e01b815260040160405180910390fd5b6001600160e01b0319811681146109c8575f5ffd5b5f60208284031215611b9c575f5ffd5b813561111c81611b77565b80356001600160a01b0381168114611bbd575f5ffd5b919050565b80356001600160601b0381168114611bbd575f5ffd5b5f5f60408385031215611be9575f5ffd5b611bf283611ba7565b9150611c0060208401611bc2565b90509250929050565b5f81518084528060208401602086015e5f602082860101526020601f19601f83011685010191505092915050565b602081525f61111c6020830184611c09565b5f60208284031215611c59575f5ffd5b5035919050565b5f5f60408385031215611c71575f5ffd5b611c7a83611ba7565b946020939093013593505050565b634e487b7160e01b5f52604160045260245ffd5b5f82601f830112611cab575f5ffd5b8135602083015f5f67ffffffffffffffff841115611ccb57611ccb611c88565b50604051601f19601f85018116603f0116810181811067ffffffffffffffff82111715611cfa57611cfa611c88565b604052838152905080828401871015611d11575f5ffd5b838360208301375f602085830101528094505050505092915050565b5f5f60408385031215611d3e575f5ffd5b82359150602083013567ffffffffffffffff811115611d5b575f5ffd5b611d6785828601611c9c565b9150509250929050565b5f5f5f60608486031215611d83575f5ffd5b611d8c84611ba7565b9250611d9a60208501611ba7565b929592945050506040919091013590565b5f5f60408385031215611dbc575f5ffd5b50508035926020909101359150565b5f5f60408385031215611ddc575f5ffd5b611de583611ba7565b9150602083013567ffffffffffffffff811115611d5b575f5ffd5b5f5f5f60608486031215611e12575f5ffd5b83359250611e2260208501611ba7565b9150611e3060408501611bc2565b90509250925092565b5f60208284031215611e49575f5ffd5b61111c82611ba7565b5f60208284031215611e62575f5ffd5b813567ffffffffffffffff811115611e78575f5ffd5b61197c84828501611c9c565b5f5f60408385031215611e95575f5ffd5b611e9e83611ba7565b915060208301358015158114611eb2575f5ffd5b809150509250929050565b5f5f5f5f60808587031215611ed0575f5ffd5b611ed985611ba7565b9350611ee760208601611ba7565b925060408501359150606085013567ffffffffffffffff811115611f09575f5ffd5b611f1587828801611c9c565b91505092959194509250565b5f5f60408385031215611f32575f5ffd5b611f3b83611ba7565b9150611c0060208401611ba7565b600181811c90821680611f5d57607f821691505b602082108103611f7b57634e487b7160e01b5f52602260045260245ffd5b50919050565b634e487b7160e01b5f52601160045260245ffd5b808202811582820484141761061457610614611f81565b5f82611fc657634e487b7160e01b5f52601260045260245ffd5b500490565b8082018082111561061457610614611f81565b601f82111561086457805f5260205f20601f840160051c810160208510156120035750805b601f840160051c820191505b818110156115fd575f815560010161200f565b815167ffffffffffffffff81111561203c5761203c611c88565b6120508161204a8454611f49565b84611fde565b6020601f821160018114612082575f831561206b5750848201515b5f19600385901b1c1916600184901b1784556115fd565b5f84815260208120601f198516915b828110156120b15787850151825560209485019460019092019101612091565b50848210156120ce57868401515f19600387901b60f8161c191681555b50505050600190811b01905550565b5f81518060208401855e5f93019283525090919050565b7f646174613a6170706c69636174696f6e2f6a736f6e3b757466382c000000000081525f61111c601b8301846120dd565b5f60208284031215612135575f5ffd5b5051919050565b6001600160a01b03858116825284166020820152604081018390526080606082018190525f9061216e90830184611c09565b9695505050505050565b5f60208284031215612188575f5ffd5b815161111c81611b77565b5f61111c82846120dd56fe80bb2b638cc20bc4d0a60d66940f3ab4a00c1d7b313497ca82fb0b4ab0079300360894a13ba1a3210667c828492db98dca3e2076cc3735a920a3ca505d382bbc7b226e616d65223a2022454f4e204d554e222c226465736372697074696f6e223a224561636820454d4e204e465420726570726573656e657473206120756e6971756520706879736963616c20617274776f726b206372656174656420627920454f4e204d554e2e227ddaedc9ab023613a7caf35e703657e986ccfad7e3eb0af93a2853f8d65dd86b00a2646970667358221220d2039510506dea2424928b27410792a96118d9303e71042ae22c638b38948eac64736f6c634300081c0033",
  "linkReferences": {},
  "deployedLinkReferences": {},
  "immutableReferences": {
    "482": [
      {
        "length": 32,
        "start": 4423
      },
      {
        "length": 32,
        "start": 4464
      },
      {
        "length": 32,
        "start": 4783
      }
    ]
  },
  "inputSourceName": "project/contracts/EMN.sol",
  "buildInfoId": "4f32ff0556356632778296c1f2b574a91c06cff6"
}