{
  "_format": "hh3-artifact-1",
  "contractName": "EMN",
  "sourceName": "contracts/EMN.sol",
  "abi": [
    {
      "inputs": [],
      "stateMutability": "nonpayable",
      "type": "constructor"
    },
    {
      "inputs": [
        {
          "internalType": "address",
          "name": "target",
          "type": "address"
        }
      ],
      "name": "AddressEmptyCode",
      "type": "error"
    },
    {
      "inputs": [
        {
          "internalType": "address",
          "name": "implementation",
          "type": "address"
        }
      ],
      "name": "ERC1967InvalidImplementation",
      "type": "error"
    },
    {
      "inputs": [],
      "name": "ERC1967NonPayable",
      "type": "error"
    },
    {
      "inputs": [
        {
          "internalType": "uint256",
          "name": "numerator",
          "type": "uint256"
        },
        {
          "internalType": "uint256",
          "name": "denominator",
          "type": "uint256"
        }
      ],
      "name": "ERC2981InvalidDefaultRoyalty",
      "type": "error"
    },
    {
      "inputs": [
        {
          "internalType": "address",
          "name": "receiver",
          "type": "address"
        }
      ],
      "name": "ERC2981InvalidDefaultRoyaltyReceiver",
      "type": "error"
    },
    {
      "inputs": [
        {
          "internalType": "uint256",
          "name": "tokenId",
          "type": "uint256"
        },
        {
          "internalType": "uint256",
          "name": "numerator",
          "type": "uint256"
        },
        {
          "internalType": "uint256",
          "name": "denominator",
          "type": "uint256"
        }
      ],
      "name": "ERC2981InvalidTokenRoyalty",
      "type": "error"
    },
    {
      "inputs": [
        {
          "internalType": "uint256",
          "name": "tokenId",
          "type": "uint256"
        },
        {
          "internalType": "address",
          "name": "receiver",
          "type": "address"
        }
      ],
      "name": "ERC2981InvalidTokenRoyaltyReceiver",
      "type": "error"
    },
    {
      "inputs": [
        {
          "internalType": "address",
          "name": "sender",
          "type": "address"
        },
        {
          "internalType": "uint256",
          "name": "tokenId",
          "type": "uint256"
        },
        {
          "internalType": "address",
          "name": "owner",
          "type": "address"
        }
      ],
      "name": "ERC721IncorrectOwner",
      "type": "error"
    },
    {
      "inputs": [
        {
          "internalType": "address",
          "name": "operator",
          "type": "address"
        },
        {
          "internalType": "uint256",
          "name": "tokenId",
          "type": "uint256"
        }
      ],
      "name": "ERC721InsufficientApproval",
      "type": "error"
    },
    {
      "inputs": [
        {
          "internalType": "address",
          "name": "approver",
          "type": "address"
        }
      ],
      "name": "ERC721InvalidApprover",
      "type": "error"
    },
    {
      "inputs": [
        {
          "internalType": "address",
          "name": "operator",
          "type": "address"
        }
      ],
      "name": "ERC721InvalidOperator",
      "type": "error"
    },
    {
      "inputs": [
        {
          "internalType": "address",
          "name": "owner",
          "type": "address"
        }
      ],
      "name": "ERC721InvalidOwner",
      "type": "error"
    },
    {
      "inputs": [
        {
          "internalType": "address",
          "name": "receiver",
          "type": "address"
        }
      ],
      "name": "ERC721InvalidReceiver",
      "type": "error"
    },
    {
      "inputs": [
        {
          "internalType": "address",
          "name": "sender",
          "type": "address"
        }
      ],
      "name": "ERC721InvalidSender",
      "type": "error"
    },
    {
      "inputs": [
        {
          "internalType": "uint256",
          "name": "tokenId",
          "type": "uint256"
        }
      ],
      "name": "ERC721NonexistentToken",
      "type": "error"
    },
    {
      "inputs": [],
      "name": "FailedCall",
      "type": "error"
    },
    {
      "inputs": [],
      "name": "InvalidInitialization",
      "type": "error"
    },
    {
      "inputs": [],
      "name": "NotInitializing",
      "type": "error"
    },
    {
      "inputs": [
        {
          "internalType": "address",
          "name": "owner",
          "type": "address"
        }
      ],
      "name": "OwnableInvalidOwner",
      "type": "error"
    },
    {
      "inputs": [
        {
          "internalType": "address",
          "name": "account",
          "type": "address"
        }
      ],
      "name": "OwnableUnauthorizedAccount",
      "type": "error"
    },
    {
      "inputs": [],
      "name": "UUPSUnauthorizedCallContext",
      "type": "error"
    },
    {
      "inputs": [
        {
          "internalType": "bytes32",
          "name": "slot",
          "type": "bytes32"
        }
      ],
      "name": "UUPSUnsupportedProxiableUUID",
      "type": "error"
    },
    {
      "anonymous": false,
      "inputs": [
        {
          "indexed": true,
          "internalType": "address",
          "name": "owner",
          "type": "address"
        },
        {
          "indexed": true,
          "internalType": "address",
          "name": "approved",
          "type": "address"
        },
        {
          "indexed": true,
          "internalType": "uint256",
          "name": "tokenId",
          "type": "uint256"
        }
      ],
      "name": "Approval",
      "type": "event"
    },
    {
      "anonymous": false,
      "inputs": [
        {
          "indexed": true,
          "internalType": "address",
          "name": "owner",
          "type": "address"
        },
        {
          "indexed": true,
          "internalType": "address",
          "name": "operator",
          "type": "address"
        },
        {
          "indexed": false,
          "internalType": "bool",
          "name": "approved",
          "type": "bool"
        }
      ],
      "name": "ApprovalForAll",
      "type": "event"
    },
    {
      "anonymous": false,
      "inputs": [
        {
          "indexed": false,
          "internalType": "uint64",
          "name": "version",
          "type": "uint64"
        }
      ],
      "name": "Initialized",
      "type": "event"
    },
    {
      "anonymous": false,
      "inputs": [
        {
          "indexed": true,
          "internalType": "uint256",
          "name": "tokenId",
          "type": "uint256"
        },
        {
          "indexed": false,
          "internalType": "string",
          "name": "tokenURI",
          "type": "string"
        }
      ],
      "name": "NftMinted",
      "type": "event"
    },
    {
      "anonymous": false,
      "inputs": [
        {
          "indexed": true,
          "internalType": "address",
          "name": "previousOwner",
          "type": "address"
        },
        {
          "indexed": true,
          "internalType": "address",
          "name": "newOwner",
          "type": "address"
        }
      ],
      "name": "OwnershipTransferred",
      "type": "event"
    },
    {
      "anonymous": false,
      "inputs": [
        {
          "indexed": true,
          "internalType": "address",
          "name": "from",
          "type": "address"
        },
        {
          "indexed": true,
          "internalType": "address",
          "name": "to",
          "type": "address"
        },
        {
          "indexed": true,
          "internalType": "uint256",
          "name": "tokenId",
          "type": "uint256"
        }
      ],
      "name": "Transfer",
      "type": "event"
    },
    {
      "anonymous": false,
      "inputs": [
        {
          "indexed": true,
          "internalType": "address",
          "name": "implementation",
          "type": "address"
        }
      ],
      "name": "Upgraded",
      "type": "event"
    },
    {
      "inputs": [],
      "name": "UPGRADE_INTERFACE_VERSION",
      "outputs": [
        {
          "internalType": "string",
          "name": "",
          "type": "string"
        }
      ],
      "stateMutability": "view",
      "type": "function"
    },
    {
      "inputs": [
        {
          "internalType": "address",
          "name": "to",
          "type": "address"
        },
        {
          "internalType": "uint256",
          "name": "tokenId",
          "type": "uint256"
        }
      ],
      "name": "approve",
      "outputs": [],
      "stateMutability": "nonpayable",
      "type": "function"
    },
    {
      "inputs": [
        {
          "internalType": "address",
          "name": "owner",
          "type": "address"
        }
      ],
      "name": "balanceOf",
      "outputs": [
        {
          "internalType": "uint256",
          "name": "",
          "type": "uint256"
        }
      ],
      "stateMutability": "view",
      "type": "function"
    },
    {
      "inputs": [],
      "name": "contractURI",
      "outputs": [
        {
          "internalType": "string",
          "name": "",
          "type": "string"
        }
      ],
      "stateMutability": "pure",
      "type": "function"
    },
    {
      "inputs": [],
      "name": "deleteDefaultRoyalty",
      "outputs": [],
      "stateMutability": "nonpayable",
      "type": "function"
    },
    {
      "inputs": [
        {
          "internalType": "uint256",
          "name": "tokenId",
          "type": "uint256"
        }
      ],
      "name": "getApproved",
      "outputs": [
        {
          "internalType": "address",
          "name": "",
          "type": "address"
        }
      ],
      "stateMutability": "view",
      "type": "function"
    },
    {
      "inputs": [],
      "name": "getTokenCounter",
      "outputs": [
        {
          "internalType": "uint256",
          "name": "",
          "type": "uint256"
        }
      ],
      "stateMutability": "view",
      "type": "function"
    },
    {
      "inputs": [
        {
          "internalType": "address",
          "name": "royaltyReceiver",
          "type": "address"
        },
        {
          "internalType": "uint96",
          "name": "royaltyFeeNumerator",
          "type": "uint96"
        }
      ],
      "name": "initialize",
      "outputs": [],
      "stateMutability": "nonpayable",
      "type": "function"
    },
    {
      "inputs": [
        {
          "internalType": "address",
          "name": "owner",
          "type": "address"
        },
        {
          "internalType": "address",
          "name": "operator",
          "type": "address"
        }
      ],
      "name": "isApprovedForAll",
      "outputs": [
        {
          "internalType": "bool",
          "name": "",
          "type": "bool"
        }
      ],
      "stateMutability": "view",
      "type": "function"
    },
    {
      "inputs": [
        {
          "internalType": "string",
          "name": "tokenURI",
          "type": "string"
        }
      ],
      "name": "mintNft",
      "outputs": [],
      "stateMutability": "nonpayable",
      "type": "function"
    },
    {
      "inputs": [
        {
          "internalType": "address",
          "name": "to",
          "type": "address"
        },
        {
          "internalType": "string",
          "name": "tokenURI",
          "type": "string"
        }
      ],
      "name": "mintNftTo",
      "outputs": [],
      "stateMutability": "nonpayable",
      "type": "function"
    },
    {
      "inputs": [],
      "name": "name",
      "outputs": [
        {
          "internalType": "string",
          "name": "",
          "type": "string"
        }
      ],
      "stateMutability": "view",
      "type": "function"
    },
    {
      "inputs": [],
      "name": "owner",
      "outputs": [
        {
          "internalType": "address",
          "name": "",
          "type": "address"
        }
      ],
      "stateMutability": "view",
      "type": "function"
    },
    {
      "inputs": [
        {
          "internalType": "uint256",
          "name": "tokenId",
          "type": "uint256"
        }
      ],
      "name": "ownerOf",
      "outputs": [
        {
          "internalType": "address",
          "name": "",
          "type": "address"
        }
      ],
      "stateMutability": "view",
      "type": "function"
    },
    {
      "inputs": [],
      "name": "proxiableUUID",
      "outputs": [
        {
          "internalType": "bytes32",
          "name": "",
          "type": "bytes32"
        }
      ],
      "stateMutability": "view",
      "type": "function"
    },
    {
      "inputs": [],
      "name": "renounceOwnership",
      "outputs": [],
      "stateMutability": "nonpayable",
      "type": "function"
    },
    {
      "inputs": [
        {
          "internalType": "uint256",
          "name": "tokenId",
          "type": "uint256"
        }
      ],
      "name": "resetTokenRoyalty",
      "outputs": [],
      "stateMutability": "nonpayable",
      "type": "function"
    },
    {
      "inputs": [
        {
          "internalType": "uint256",
          "name": "tokenId",
          "type": "uint256"
        },
        {
          "internalType": "uint256",
          "name": "salePrice",
          "type": "uint256"
        }
      ],
      "name": "royaltyInfo",
      "outputs": [
        {
          "internalType": "address",
          "name": "receiver",
          "type": "address"
        },
        {
          "internalType": "uint256",
          "name": "amount",
          "type": "uint256"
        }
      ],
      "stateMutability": "view",
      "type": "function"
    },
    {
      "inputs": [
        {
          "internalType": "address",
          "name": "from",
          "type": "address"
        },
        {
          "internalType": "address",
          "name": "to",
          "type": "address"
        },
        {
          "internalType": "uint256",
          "name": "tokenId",
          "type": "uint256"
        }
      ],
      "name": "safeTransferFrom",
      "outputs": [],
      "stateMutability": "nonpayable",
      "type": "function"
    },
    {
      "inputs": [
        {
          "internalType": "address",
          "name": "from",
          "type": "address"
        },
        {
          "internalType": "address",
          "name": "to",
          "type": "address"
        },
        {
          "internalType": "uint256",
          "name": "tokenId",
          "type": "uint256"
        },
        {
          "internalType": "bytes",
          "name": "data",
          "type": "bytes"
        }
      ],
      "name": "safeTransferFrom",
      "outputs": [],
      "stateMutability": "nonpayable",
      "type": "function"
    },
    {
      "inputs": [
        {
          "internalType": "address",
          "name": "operator",
          "type": "address"
        },
        {
          "internalType": "bool",
          "name": "approved",
          "type": "bool"
        }
      ],
      "name": "setApprovalForAll",
      "outputs": [],
      "stateMutability": "nonpayable",
      "type": "function"
    },
    {
      "inputs": [
        {
          "internalType": "address",
          "name": "receiver",
          "type": "address"
        },
        {
          "internalType": "uint96",
          "name": "feeNumerator",
          "type": "uint96"
        }
      ],
      "name": "setDefaultRoyalty",
      "outputs": [],
      "stateMutability": "nonpayable",
      "type": "function"
    },
    {
      "inputs": [
        {
          "internalType": "uint256",
          "name": "tokenId",
          "type": "uint256"
        },
        {
          "internalType": "address",
          "name": "receiver",
          "type": "address"
        },
        {
          "internalType": "uint96",
          "name": "feeNumerator",
          "type": "uint96"
        }
      ],
      "name": "setTokenRoyalty",
      "outputs": [],
      "stateMutability": "nonpayable",
      "type": "function"
    },
    {
      "inputs": [
        {
          "internalType": "uint256",
          "name": "tokenId",
          "type": "uint256"
        },
        {
          "internalType": "string",
          "name": "tokenURI",
          "type": "string"
        }
      ],
      "name": "setTokenURI",
      "outputs": [],
      "stateMutability": "nonpayable",
      "type": "function"
    },
    {
      "inputs": [
        {
          "internalType": "bytes4",
          "name": "interfaceId",
          "type": "bytes4"
        }
      ],
      "name": "supportsInterface",
      "outputs": [
        {
          "internalType": "bool",
          "name": "",
          "type": "bool"
        }
      ],
      "stateMutability": "view",
      "type": "function"
    },
    {
      "inputs": [],
      "name": "symbol",
      "outputs": [
        {
          "internalType": "string",
          "name": "",
          "type": "string"
        }
      ],
      "stateMutability": "view",
      "type": "function"
    },
    {
      "inputs": [
        {
          "internalType": "uint256",
          "name": "tokenId",
          "type": "uint256"
        }
      ],
      "name": "tokenURI",
      "outputs": [
        {
          "internalType": "string",
          "name": "",
          "type": "string"
        }
      ],
      "stateMutability": "view",
      "type": "function"
    },
    {
      "inputs": [
        {
          "internalType": "address",
          "name": "from",
          "type": "address"
        },
        {
          "internalType": "address",
          "name": "to",
          "type": "address"
        },
        {
          "internalType": "uint256",
          "name": "tokenId",
          "type": "uint256"
        }
      ],
      "name": "transferFrom",
      "outputs": [],
      "stateMutability": "nonpayable",
      "type": "function"
    },
    {
      "inputs": [
        {
          "internalType": "address",
          "name": "newOwner",
          "type": "address"
        }
      ],
      "name": "transferOwnership",
      "outputs": [],
      "stateMutability": "nonpayable",
      "type": "function"
    },
    {
      "inputs": [
        {
          "internalType": "address",
          "name": "newImplementation",
          "type": "address"
        },
        {
          "internalType": "bytes",
          "name": "data",
          "type": "bytes"
        }
      ],
      "name": "upgradeToAndCall",
      "outputs": [],
      "stateMutability": "payable",
      "type": "function"
    },
    {
      "inputs": [],
      "name": "version",
      "outputs": [
        {
          "internalType": "string",
          "name": "",
          "type": "string"
        }
      ],
      "stateMutability": "pure",
      "type": "function"
    }
  ],
  "bytecode": "0x60a060405230608052348015610013575f5ffd5b5061001c610021565b6100d3565b7ff0c57e16840df040f15088dc2f81fe391c3923bec73e23a9662efc9c229c6a00805468010000000000000000900460ff16156100715760405163f92ee8a960e01b815260040160405180910390fd5b80546001600160401b03908116146100d05780546001600160401b0319166001600160401b0390811782556040519081527fc7f505b2f371ae2175ee4913f4499e1f2633a7b5936321eed1cdaeb6115181d29060200160405180910390a15b50565b60805161218d6100f95f395f81816110360152818161105f015261119e015261218d5ff3fe6080604052600436106101d0575f3560e01c80636e02007d116100fd578063ad3cb1cc11610092578063e8a3d48511610062578063e8a3d4851461056f578063e985e9c514610583578063f2a41374146105a2578063f2fde38b146105c1575f5ffd5b8063ad3cb1cc146104e2578063b88d4fde14610512578063c87b56dd14610531578063da86f4a914610550575f5ffd5b80638da5cb5b116100cd5780638da5cb5b1461045f57806395d89b411461049b578063a22cb465146104af578063aa1b103f146104ce575f5ffd5b80636e02007d146103fa57806370a082311461040d578063715018a61461042c5780638a616bc014610440575f5ffd5b80632a55205a1161017357806352d1902d1161014357806352d1902d1461036d57806354fd4d501461038f5780635944c753146103bc5780636352211e146103db575f5ffd5b80632a55205a146102de57806342842e0e1461031c57806348618b1c1461033b5780634f1ef2861461035a575f5ffd5b8063081812fc116101ae578063081812fc1461024a578063095ea7b314610281578063162094c4146102a057806323b872dd146102bf575f5ffd5b806301ffc9a7146101d457806304634d8d1461020857806306fdde0314610229575b5f5ffd5b3480156101df575f5ffd5b506101f36101ee366004611a7b565b6105e0565b60405190151581526020015b60405180910390f35b348015610213575f5ffd5b50610227610222366004611ac7565b6105f0565b005b348015610234575f5ffd5b5061023d610606565b6040516101ff9190611b26565b348015610255575f5ffd5b50610269610264366004611b38565b6106a7565b6040516001600160a01b0390911681526020016101ff565b34801561028c575f5ffd5b5061022761029b366004611b4f565b6106bb565b3480156102ab575f5ffd5b506102276102ba366004611c1c565b6106c6565b3480156102ca575f5ffd5b506102276102d9366004611c60565b6106e2565b3480156102e9575f5ffd5b506102fd6102f8366004611c9a565b610770565b604080516001600160a01b0390931683526020830191909152016101ff565b348015610327575f5ffd5b50610227610336366004611c60565b610820565b348015610346575f5ffd5b50610227610355366004611cba565b61083f565b610227610368366004611cba565b6108a9565b348015610378575f5ffd5b506103816108c4565b6040519081526020016101ff565b34801561039a575f5ffd5b506040805180820190915260058152640312e302e360dc1b602082015261023d565b3480156103c7575f5ffd5b506102276103d6366004611cef565b6108df565b3480156103e6575f5ffd5b506102696103f5366004611b38565b6108f2565b348015610405575f5ffd5b505f54610381565b348015610418575f5ffd5b50610381610427366004611d28565b6108fc565b348015610437575f5ffd5b50610227610954565b34801561044b575f5ffd5b5061022761045a366004611b38565b610967565b34801561046a575f5ffd5b507f9016d09d72d40fdae2fd8ceac6b6234c7706214fd39c1cd1e609a0528c199300546001600160a01b0316610269565b3480156104a6575f5ffd5b5061023d6109a1565b3480156104ba575f5ffd5b506102276104c9366004611d41565b6109df565b3480156104d9575f5ffd5b506102276109ea565b3480156104ed575f5ffd5b5061023d604051806040016040528060058152602001640352e302e360dc1b81525081565b34801561051d575f5ffd5b5061022761052c366004611d7a565b610a07565b34801561053c575f5ffd5b5061023d61054b366004611b38565b610a1f565b34801561055b575f5ffd5b5061022761056a366004611dde565b610ac6565b34801561057a575f5ffd5b5061023d610b27565b34801561058e575f5ffd5b506101f361059d366004611e10565b610b6b565b3480156105ad575f5ffd5b506102276105bc366004611ac7565b610bb7565b3480156105cc575f5ffd5b506102276105db366004611d28565b610d12565b5f6105ea82610d4c565b92915050565b6105f8610d70565b6106028282610dcb565b5050565b5f51602061208e5f395f51905f52805460609190819061062590611e38565b80601f016020809104026020016040519081016040528092919081815260200182805461065190611e38565b801561069c5780601f106106735761010080835404028352916020019161069c565b820191905f5260205f20905b81548152906001019060200180831161067f57829003601f168201915b505050505091505090565b5f6106b182610e7a565b506105ea82610eb1565b610602828233610eea565b6106ce610d70565b6106d782610e7a565b506106028282610ef7565b6001600160a01b03821661071057604051633250574960e11b81525f60048201526024015b60405180910390fd5b5f61071c838333610f0e565b9050836001600160a01b0316816001600160a01b03161461076a576040516364283d7b60e01b81526001600160a01b0380861660048301526024820184905282166044820152606401610707565b50505050565b5f8281527fdaedc9ab023613a7caf35e703657e986ccfad7e3eb0af93a2853f8d65dd86b0160205260408120805482915f5160206121385f395f51905f52916001600160a01b03811690600160a01b90046001600160601b0316816107ef57505081546001600160a01b03811690600160a01b90046001600160601b03165b5f6127106108066001600160601b0384168a611e84565b6108109190611e9b565b9299929850919650505050505050565b61083a83838360405180602001604052805f815250610a07565b505050565b610847610d70565b5f546108538382611012565b61085d8183610ef7565b807fe578c8f75165e747c939a516a93901610990f0f120d839b08ce89b77ad220f1e8360405161088d9190611b26565b60405180910390a25f546108a2906001611eba565b5f55505050565b6108b161102b565b6108ba826110cf565b61060282826110d7565b5f6108cd611193565b505f5160206120ae5f395f51905f5290565b6108e7610d70565b61083a8383836111dc565b5f6105ea82610e7a565b5f5f51602061208e5f395f51905f526001600160a01b038316610934576040516322718ad960e21b81525f6004820152602401610707565b6001600160a01b039092165f908152600390920160205250604090205490565b61095c610d70565b6109655f6112ac565b565b61096f610d70565b5f9081527fdaedc9ab023613a7caf35e703657e986ccfad7e3eb0af93a2853f8d65dd86b016020526040812055565b50565b7f80bb2b638cc20bc4d0a60d66940f3ab4a00c1d7b313497ca82fb0b4ab007930180546060915f51602061208e5f395f51905f529161062590611e38565b61060233838361131c565b6109f2610d70565b6109655f5f5160206121385f395f51905f5255565b610a128484846106e2565b61076a33858585856113cb565b6060610a2a82610e7a565b505f8281526001602052604090208054610a4390611e38565b80601f0160208091040260200160405190810160405280929190818152602001828054610a6f90611e38565b8015610aba5780601f10610a9157610100808354040283529160200191610aba565b820191905f5260205f20905b815481529060010190602001808311610a9d57829003601f168201915b50505050509050919050565b5f54610ad23382611012565b610adc8183610ef7565b807fe578c8f75165e747c939a516a93901610990f0f120d839b08ce89b77ad220f1e83604051610b0c9190611b26565b60405180910390a25f54610b21906001611eba565b5f555050565b60605f6040518060a00160405280606a81526020016120ce606a9139905080604051602001610b569190611ee4565b60405160208183030381529060405291505090565b6001600160a01b039182165f9081527f80bb2b638cc20bc4d0a60d66940f3ab4a00c1d7b313497ca82fb0b4ab00793056020908152604080832093909416825291909152205460ff1690565b5f610bc06114f3565b805490915060ff600160401b820416159067ffffffffffffffff165f81158015610be75750825b90505f8267ffffffffffffffff166001148015610c035750303b155b905081158015610c11575080155b15610c2f5760405163f92ee8a960e01b815260040160405180910390fd5b845467ffffffffffffffff191660011785558315610c5957845460ff60401b1916600160401b1785555b610c9d6040518060400160405280600781526020016622a7a71026aaa760c91b8152506040518060400160405280600381526020016222a6a760e91b81525061151b565b610ca561152d565b610cae33611535565b610cb661152d565b5f8055610cc38787610dcb565b8315610d0957845460ff60401b19168555604051600181527fc7f505b2f371ae2175ee4913f4499e1f2633a7b5936321eed1cdaeb6115181d29060200160405180910390a15b50505050505050565b610d1a610d70565b6001600160a01b038116610d4357604051631e4fbdf760e01b81525f6004820152602401610707565b61099e816112ac565b5f6001600160e01b0319821663152a902d60e11b14806105ea57506105ea82611546565b33610da27f9016d09d72d40fdae2fd8ceac6b6234c7706214fd39c1cd1e609a0528c199300546001600160a01b031690565b6001600160a01b0316146109655760405163118cdaa760e01b8152336004820152602401610707565b5f5160206121385f395f51905f526127106001600160601b038316811015610e1857604051636f483d0960e01b81526001600160601b038416600482015260248101829052604401610707565b6001600160a01b038416610e4157604051635b6cc80560e11b81525f6004820152602401610707565b50604080518082019091526001600160a01b039093168084526001600160601b039092166020909301839052600160a01b909202179055565b5f5f610e8583611595565b90506001600160a01b0381166105ea57604051637e27328960e01b815260048101849052602401610707565b5f9081527f80bb2b638cc20bc4d0a60d66940f3ab4a00c1d7b313497ca82fb0b4ab007930460205260409020546001600160a01b031690565b61083a83838360016115ce565b5f82815260016020526040902061083a8282611f59565b5f5f51602061208e5f395f51905f5281610f2785611595565b90506001600160a01b03841615610f4357610f438185876116e1565b6001600160a01b03811615610f7f57610f5e5f865f5f6115ce565b6001600160a01b0381165f908152600383016020526040902080545f190190555b6001600160a01b03861615610faf576001600160a01b0386165f9081526003830160205260409020805460010190555b5f85815260028301602052604080822080546001600160a01b0319166001600160a01b038a811691821790925591518893918516917fddf252ad1be2c89b69c2b068fc378daa952ba7f163c4a11628f55a4df523b3ef91a49150505b9392505050565b610602828260405180602001604052805f815250611745565b306001600160a01b037f00000000000000000000000000000000000000000000000000000000000000001614806110b157507f00000000000000000000000000000000000000000000000000000000000000006001600160a01b03166110a55f5160206120ae5f395f51905f52546001600160a01b031690565b6001600160a01b031614155b156109655760405163703e46dd60e11b815260040160405180910390fd5b61099e610d70565b816001600160a01b03166352d1902d6040518163ffffffff1660e01b8152600401602060405180830381865afa925050508015611131575060408051601f3d908101601f1916820190925261112e91810190612014565b60015b61115957604051634c9c8ce360e01b81526001600160a01b0383166004820152602401610707565b5f5160206120ae5f395f51905f52811461118957604051632a87526960e21b815260048101829052602401610707565b61083a838361175c565b306001600160a01b037f000000000000000000000000000000000000000000000000000000000000000016146109655760405163703e46dd60e11b815260040160405180910390fd5b5f5160206121385f395f51905f526127106001600160601b0383168110156112305760405163dfd1fc1b60e01b8152600481018690526001600160601b038416602482015260448101829052606401610707565b6001600160a01b03841661126057604051634b4f842960e11b8152600481018690525f6024820152604401610707565b506040805180820182526001600160a01b0394851681526001600160601b0393841660208083019182525f9788526001909401909352942093519051909116600160a01b029116179055565b7f9016d09d72d40fdae2fd8ceac6b6234c7706214fd39c1cd1e609a0528c19930080546001600160a01b031981166001600160a01b03848116918217845560405192169182907f8be0079c531659141344cd1fd0a4f28419497f9722a3daafe3b4186f6b6457e0905f90a3505050565b5f51602061208e5f395f51905f526001600160a01b03831661135c57604051630b61174360e31b81526001600160a01b0384166004820152602401610707565b6001600160a01b038481165f818152600584016020908152604080832094881680845294825291829020805460ff191687151590811790915591519182527f17307eab39ab6107e8899845ad3d59bd9653f200f220920489ca2b5937696c31910160405180910390a350505050565b6001600160a01b0383163b156114ec57604051630a85bd0160e11b81526001600160a01b0384169063150b7a029061140d90889088908790879060040161202b565b6020604051808303815f875af1925050508015611447575060408051601f3d908101601f1916820190925261144491810190612067565b60015b6114ae573d808015611474576040519150601f19603f3d011682016040523d82523d5f602084013e611479565b606091505b5080515f036114a657604051633250574960e11b81526001600160a01b0385166004820152602401610707565b805181602001fd5b6001600160e01b03198116630a85bd0160e11b146114ea57604051633250574960e11b81526001600160a01b0385166004820152602401610707565b505b5050505050565b5f807ff0c57e16840df040f15088dc2f81fe391c3923bec73e23a9662efc9c229c6a006105ea565b6115236117b1565b61060282826117d6565b6109656117b1565b61153d6117b1565b61099e81611806565b5f6001600160e01b031982166380ac58cd60e01b148061157657506001600160e01b03198216635b5e139f60e01b145b806105ea57506301ffc9a760e01b6001600160e01b03198316146105ea565b5f9081527f80bb2b638cc20bc4d0a60d66940f3ab4a00c1d7b313497ca82fb0b4ab007930260205260409020546001600160a01b031690565b5f51602061208e5f395f51905f5281806115f057506001600160a01b03831615155b156116b1575f6115ff85610e7a565b90506001600160a01b0384161580159061162b5750836001600160a01b0316816001600160a01b031614155b801561163e575061163c8185610b6b565b155b156116675760405163a9fbf51f60e01b81526001600160a01b0385166004820152602401610707565b82156116af5784866001600160a01b0316826001600160a01b03167f8c5be1e5ebec7d5bd14f71427d1e84f3dd0314c0f7b2291e5b200ac8c7c3b92560405160405180910390a45b505b5f93845260040160205250506040902080546001600160a01b0319166001600160a01b0392909216919091179055565b6116ec83838361180e565b61083a576001600160a01b03831661171a57604051637e27328960e01b815260048101829052602401610707565b60405163177e802f60e01b81526001600160a01b038316600482015260248101829052604401610707565b61174f8383611873565b61083a335f8585856113cb565b611765826118d4565b6040516001600160a01b038316907fbc7cd75a20ee27fd9adebab32041f755214dbc6bffa90cc0225b39da2e5c2d3b905f90a28051156117a95761083a8282611937565b6106026119a9565b6117b96119c8565b61096557604051631afcd79f60e31b815260040160405180910390fd5b6117de6117b1565b5f51602061208e5f395f51905f52806117f78482611f59565b506001810161076a8382611f59565b610d1a6117b1565b5f6001600160a01b0383161580159061186b5750826001600160a01b0316846001600160a01b0316148061184757506118478484610b6b565b8061186b5750826001600160a01b031661186083610eb1565b6001600160a01b0316145b949350505050565b6001600160a01b03821661189c57604051633250574960e11b81525f6004820152602401610707565b5f6118a883835f610f0e565b90506001600160a01b0381161561083a576040516339e3563760e11b81525f6004820152602401610707565b806001600160a01b03163b5f0361190957604051634c9c8ce360e01b81526001600160a01b0382166004820152602401610707565b5f5160206120ae5f395f51905f5280546001600160a01b0319166001600160a01b0392909216919091179055565b60605f5f846001600160a01b0316846040516119539190612082565b5f60405180830381855af49150503d805f811461198b576040519150601f19603f3d011682016040523d82523d5f602084013e611990565b606091505b50915091506119a08583836119e1565b95945050505050565b34156109655760405163b398979f60e01b815260040160405180910390fd5b5f6119d16114f3565b54600160401b900460ff16919050565b6060826119f6576119f182611a3d565b61100b565b8151158015611a0d57506001600160a01b0384163b155b15611a3657604051639996b31560e01b81526001600160a01b0385166004820152602401610707565b508061100b565b805115611a4d5780518082602001fd5b60405163d6bda27560e01b815260040160405180910390fd5b6001600160e01b03198116811461099e575f5ffd5b5f60208284031215611a8b575f5ffd5b813561100b81611a66565b80356001600160a01b0381168114611aac575f5ffd5b919050565b80356001600160601b0381168114611aac575f5ffd5b5f5f60408385031215611ad8575f5ffd5b611ae183611a96565b9150611aef60208401611ab1565b90509250929050565b5f81518084528060208401602086015e5f602082860101526020601f19601f83011685010191505092915050565b602081525f61100b6020830184611af8565b5f60208284031215611b48575f5ffd5b5035919050565b5f5f60408385031215611b60575f5ffd5b611b6983611a96565b946020939093013593505050565b634e487b7160e01b5f52604160045260245ffd5b5f82601f830112611b9a575f5ffd5b8135602083015f5f67ffffffffffffffff841115611bba57611bba611b77565b50604051601f19601f85018116603f0116810181811067ffffffffffffffff82111715611be957611be9611b77565b604052838152905080828401871015611c00575f5ffd5b838360208301375f602085830101528094505050505092915050565b5f5f60408385031215611c2d575f5ffd5b82359150602083013567ffffffffffffffff811115611c4a575f5ffd5b611c5685828601611b8b565b9150509250929050565b5f5f5f60608486031215611c72575f5ffd5b611c7b84611a96565b9250611c8960208501611a96565b929592945050506040919091013590565b5f5f60408385031215611cab575f5ffd5b50508035926020909101359150565b5f5f60408385031215611ccb575f5ffd5b611cd483611a96565b9150602083013567ffffffffffffffff811115611c4a575f5ffd5b5f5f5f60608486031215611d01575f5ffd5b83359250611d1160208501611a96565b9150611d1f60408501611ab1565b90509250925092565b5f60208284031215611d38575f5ffd5b61100b82611a96565b5f5f60408385031215611d52575f5ffd5b611d5b83611a96565b915060208301358015158114611d6f575f5ffd5b809150509250929050565b5f5f5f5f60808587031215611d8d575f5ffd5b611d9685611a96565b9350611da460208601611a96565b925060408501359150606085013567ffffffffffffffff811115611dc6575f5ffd5b611dd287828801611b8b565b91505092959194509250565b5f60208284031215611dee575f5ffd5b813567ffffffffffffffff811115611e04575f5ffd5b61186b84828501611b8b565b5f5f60408385031215611e21575f5ffd5b611e2a83611a96565b9150611aef60208401611a96565b600181811c90821680611e4c57607f821691505b602082108103611e6a57634e487b7160e01b5f52602260045260245ffd5b50919050565b634e487b7160e01b5f52601160045260245ffd5b80820281158282048414176105ea576105ea611e70565b5f82611eb557634e487b7160e01b5f52601260045260245ffd5b500490565b808201808211156105ea576105ea611e70565b5f81518060208401855e5f93019283525090919050565b7f646174613a6170706c69636174696f6e2f6a736f6e3b757466382c000000000081525f61100b601b830184611ecd565b601f82111561083a57805f5260205f20601f840160051c81016020851015611f3a5750805b601f840160051c820191505b818110156114ec575f8155600101611f46565b815167ffffffffffffffff811115611f7357611f73611b77565b611f8781611f818454611e38565b84611f15565b6020601f821160018114611fb9575f8315611fa25750848201515b5f19600385901b1c1916600184901b1784556114ec565b5f84815260208120601f198516915b82811015611fe85787850151825560209485019460019092019101611fc8565b508482101561200557868401515f19600387901b60f8161c191681555b50505050600190811b01905550565b5f60208284031215612024575f5ffd5b5051919050565b6001600160a01b03858116825284166020820152604081018390526080606082018190525f9061205d90830184611af8565b9695505050505050565b5f60208284031215612077575f5ffd5b815161100b81611a66565b5f61100b8284611ecd56fe80bb2b638cc20bc4d0a60d66940f3ab4a00c1d7b313497ca82fb0b4ab0079300360894a13ba1a3210667c828492db98dca3e2076cc3735a920a3ca505d382bbc7b226e616d65223a2022454f4e204d554e222c226465736372697074696f6e223a224561636820454d4e204e465420726570726573656e657473206120756e6971756520706879736963616c20617274776f726b206372656174656420627920454f4e204d554e2e227ddaedc9ab023613a7caf35e703657e986ccfad7e3eb0af93a2853f8d65dd86b00a2646970667358221220b436c5201eac966de46a4c610c90eb69e94c9f19acb1d938175be2eea02fe55064736f6c634300081c0033",
  "linkReferences": {},
  "deployedLinkReferences": {},
  "immutableReferences": {
    "482": [
      {
        "length": 32,
        "start": 4150
      },
      {
        "length": 32,
        "start": 4191
      },
      {
        "length": 32,
        "start": 4510
      }
    ]
  },
  "inputSourceName": "project/contracts/EMN.sol",
  "buildInfoId": "5d0bf266b1fca6fd00b6d0e90ec2f266c6cba362"
}